:100000000C94EC020C9424030C9424030C9424030D
:100010000C9424030C9424030C9424030C942403C4
:100020000C9424030C9424030C94F6260C94CA27F5
:100030000C9408220C9424030C9424030C942403A1
:100040000C9424030C946B1D0C9424030C94240333
:100050000C948F1D0C948F220C9424030C94240375
:100060000C9424030C9424030C9424030C94240374
:100070000C9424030C9424030C9424030C94240364
:100080000C9424030C9424030C9424030C94240354
:100090000C9424030C9424030C9424030C94240344
:1000A0000C9424030C9424030C94240329001E00B4
:1000B0001F0020002100220023002400250026002C
:1000C00027002D002E002A002B0014001A00080023
:1000D000150017001C0018000C00120013002F0060
:1000E00030003100394104001600070009000A0001
:1000F0000B000D000E000F00330034002800280014
:10010000E100E1001D001B000600190005001100C0
:1001100010003600370038004C005200E000E300C9
:10012000E200000000002C000000E50050002A0062
:10013000E600215251004F0035003A003B003C00E0
:100140003D003E003F0040004100420043004400AB
:1001500045004C0062520000A900000000000000B1
:10016000B20000004900000046000000000000004E
:100170000000BE00AA00BD0000000000000000005A
:10018000000000000000000028002800E100E1005D
:100190002252A800057820780000000000006500C9
:1001A00000000000A6004B00E000E300E2000000B9
:1001B00000002C000000E5004A004C00E70021523E
:1001C0004E004D00007C0000000000000000000018
:1001D00000000000000000000000000000002A00F5
:1001E000005200000000000000005F00600061009D
:1001F0005600540000000000000000000000000055
:100200000000000000005C005D005E00570055002B
:10021000000000002800280000000000010000008D
:100220000000000059005A005B006200000000005E
:100230004C00000000000000000000000000000072
:100240000000000000002A00000000000000000084
:100250001E0F0500047F3F1F643214643214783C83
:100260001E1E140A052223252628292A2C2D2F306C
:1002700032333536383A3B3D3E4042434547494AA2
:100280004C4E5051535557595A5C5E6062646668D3
:10029000696B6D6F71737577797B7D7F81838587DE
:1002A000898A8C8E90929496989A9C9E9FA1A3A5E1
:1002B000A7A8AAACAEAFB1B3B4B6B8B9BBBCBEBF09
:1002C000C1C2C3C5C6C7C9CACBCCCDCED0D1D2D28C
:1002D000D3D4D5D6D7D7D8D9D9DADADBDBDBDCDC97
:1002E000DCDCDCDDDDDDDDDCDCDCDCDCDBDBDBDA4F
:1002F000DAD9D9D8D7D7D6D5D4D3D2D2D1D0CECDBA
:10030000CCCBCAC9C7C6C5C3C2C1BFBEBCBBB9B8C6
:10031000B6B4B3B1AFAEACAAA8A7A5A3A19F9E9C4B
:100320009A98969492908E8C8A89878583817F7D16
:100330007B79777573716F6D6B6968666462605EF7
:100340005C5A5957555351504E4C4A4947454342C0
:10035000403E3D3B3A3836353332302F2D2C2A295A
:100360002826252322FFAA7F554000010101010113
:10037000010101010202020202020202020303035E
:10038000030303030304040404040404050505052E
:1003900005060606060607070707070808080809EE
:1003A0000909090A0A0A0B0B0B0C0C0C0D0D0D0E9A
:1003B0000E0E0F0F0F10101111111212131314142F
:1003C000151516161717181819191A1A1B1B1C1DA4
:1003D0001D1E1E1F202021222223242425262627FD
:1003E0002829292A2B2C2D2D2E2F3031323233342F
:1003F00035363738393A3B3C3D3E3F404142434435
:1004000045464748494A4C4D4E4F50515354555616
:1004100058595A5B5D5E5F616264656668696B6CC2
:100420006D6F7072737577787A7B7D7E808283853D
:1004300087888A8C8E8F91939596989A9C9EA0A27D
:10044000A3A5A7A9ABADAFB1B3B5B7BABCBEC0C287
:10045000C4C6C9CBCDCFD1D4D6D8DBDDDFE2E4E74B
:10046000E9EBEEF0F3F5F8FAFDFF1603580044004F
:100470003600300020005200650076002000330076
:1004800000000C03580049005500440049000000DA
:100490000403090409023B00020100A0FA09040058
:1004A00000010301010009211101000122400007A0
:1004B000058103080001090401000103000000098F
:1004C000211101000122B60007058203200001125C
:1004D000010002000000084478636301000102008B
:1004E0000105010902A10185020901A100050919FF
:1004F00001290815002501950875018102050109EA
:100500003009311581257F95027508810609381556
:1005100081257F950175088106050C0A3802158131
:10052000257F950175088106C0C005010980A101DC
:10053000850319012AB700150126B700950175102A
:100540008100C0050C0901A101850419012AA0023E
:10055000150126A002950175108100C0050109064C
:10056000A1018506050719E029E715002501950871
:10057000750181020507190029EF1500250195F085
:10058000750181020508190129059505750191027A
:10059000950175039101C005010906A1010507191F
:1005A000E029E7150025019508750181029501757F
:1005B0000881010507190029FF150026FF0095068F
:1005C0007508810005081901290595057501910235
:1005D000950175039101C00011241FBECFEFDAE031
:1005E000DEBFCDBF04B603FE18C080916A039091B0
:1005F0006B03A0916C03B0916D038730904BA740C3
:10060000B04B59F410926A0310926B0310926C0372
:1006100010926D03E0E0F8E3099511E0A0E0B1E08D
:10062000EEE1F7E502C005900D92A23DB107D9F7C2
:1006300023E0A2EDB1E001C01D92AA36B207E1F7B6
:100640000E946E120C94392B0C940000229A2A9866
:10065000089522982A980895CF93DF93D82F0E9467
:100660004104C82F882321F0D1FF06C00E94260331
:100670008C2FDF91CF9108950E942903F9CF833009
:10068000B8F46530A8F44E3098F450E09EE0699FCD
:10069000400D511D1124FA0196E4899FE00DF11DD2
:1006A0001124EE0FFF1FE455FF4F8591949108959B
:1006B00080E090E008950E943F03089581E008954E
:1006C00081E008950E946003089508950E946503E3
:1006D0000895A5E0B0E0EFE6F3E00C942B2A4983FF
:1006E0005A833091D90189819A81311119C06623C9
:1006F00099F0222389F00E947309182F682F8981AD
:100700009A810E944F0969817A81812F0E94DE0FB0
:100710002596E3E00C94472A0E946109182FF3CF35
:100720000E94730969817A81F1CFFC01262F4081F3
:1007300051816281738184810E946903089581E0FF
:100740000895CF93DF93EC0160E00E949503BE0112
:100750000E946603DF91CF9108950E940F110895C2
:100760000E941311089508950E941E080E94B30369
:100770002FEF84E39CE0215080409040E1F700C0DF
:10078000000008950E94B4030E94B32208950E94BD
:10079000B4030E94D72208950F931F93CF93DF9342
:1007A0008C0161E00E949503EC01B8010E94620394
:1007B000811106C080E0DF91CF911F910F910895C4
:1007C000B801CE010E94341D8823A1F3B801CE01E7
:1007D0000E942920882371F3B801CE010E94BF1E18
:1007E000882341F3B801CE010E949B1F882311F397
:1007F000B801CE010E94DA1B8823E1F2F801828160
:10080000882361F0C330FCE7DF07E9F058F4C11535
:10081000ECE7DE07A9F0C130DC47B9F0C8010E945F
:100820005E03C9CFCB358CE7D807A9F0CC35ECE710
:10083000DE0771F0CA35DC4789F70E94750DEECFEF
:100840000E94C203B7CF0E947D0D0E94C703B2CFA2
:100850000E946B0DE3CF0E94790DE0CF0E94E4214E
:1008600080E00E94C41D0E944D0408950E94601CF7
:100870000E9451040E94E921089508950E943D04B8
:10088000089581E008950895CF93C82F0E943E04F3
:100890008C2F0E942C03CF91089580E00E94440485
:1008A00008950E9477200E9444040895CF930E94E7
:1008B0007720C82F8091D4018C1779F0C093D40190
:1008C0000E9474226093D5017093D6018093D70162
:1008D0009093D8018C2F0E944404CF910895ABE0EF
:1008E000B0E0E5E7F4E00C942C2A4F835887698741
:1008F0007A878B8761110E94B60C1E821D8285E06B
:10090000FE013796DE01119601900D928A95E1F76E
:100910008C819D81892B61F449815A816B817C8115
:100920008D819E810E94DF0B2B96E2E00C94482A79
:1009300089819A8189238F3F79F3CE0101960E94A4
:100940009F038111E9CFF0CFFC01808191810E944A
:10095000A5090895662329F00E94F2120E94C5138A
:1009600008950E944C13FACFCF93C82F8823C9F063
:100970008238C9F40E94772081FD13C089E30E9468
:100980006E0C0E94D70C2FEF87EE93E02150804031
:100990009040E1F700C0000089E30E94760C0E94BD
:1009A000D70CCF9108958338A1F40E94772080FD61
:1009B000F8CF83E50E946E0C0E94D70C2FEF81EEDA
:1009C00094E0215080409040E1F700C0000083E5B2
:1009D000E4CF8438A1F40E94772082FDE2CF87E43F
:1009E0000E946E0C0E94D70C2FEF81EE94E02150F4
:1009F00080409040E1F700C0000087E4CECF8CEF4C
:100A00008C0F813A90F46C2F809104019091050134
:100A10000E940A21882329F08C2F0E94760C0E94C4
:100A2000D70C8C2F0E946E0CBACF80E28C0F8830CE
:100A300048F4C77081E001C0880FCA95EAF70E94A8
:100A4000990CADCFEBE5EC0FE33040F4F0E0E45A65
:100A5000FE4F808190E00E94AC20A3CFE8E5EC0F30
:100A6000E93150F4F0E0EE0FFF1FE65DFE4F8081AC
:100A700091810E94D12095CF83E38C0F833108F0C0
:100A800090CF61E08C2F0E94AA048BCF882309F4B9
:100A900056C0823879F40E94772081FF50C089E3E4
:100AA0000E946E0C0E94D70C89E30E94760C0E9473
:100AB000D70C0895833859F40E94772080FF3FC0F7
:100AC00083E50E946E0C0E94D70C83E5EECF84383C
:100AD00059F40E94772082FF32C087E40E946E0C96
:100AE0000E94D70C87E4E1CF9CEF980F913AE8F28F
:100AF00090E2980F983050F4877091E001C0990F00
:100B00008A95EAF7892F0E949F0CD1CF9BE5980F19
:100B1000933028F490E080E00E94AC20089598E59E
:100B2000980F993128F490E080E00E94D120089538
:100B300093E3980F933118F460E00E94AA0408959B
:100B40001F93CF93DF93182FEB010E94B4042097DB
:100B500039F4812F0E944605DF91CF911F910895AE
:100B60008FE99FE00197F1F700C000002197EFCFD8
:100B700070E060E0893311F460E570E00E94A00548
:100B80000895882321F00E94990C0E94D70C0895A3
:100B9000882321F00E949F0C0E94D70C0895B0E09A
:100BA000A0E0E5EDF5E00C94252A6C01D62FC72FC7
:100BB000FC011281F580F2949FE0F9220E948F0CD3
:100BC000E82E8823B9F0E12E1123A1F08C2F807F2D
:100BD000803421F080E28D0F8830D0F080911A03AC
:100BE00082FF16C082E00E943A0D0E948F0C91E0B5
:100BF000E82EE926BC2EB2948FE0B822FBE0FB156C
:100C000008F468C0EB2DF0E0E55CF44D0C94E529A8
:100C1000E12CF0CF0C2F0F70C07F11F00295007FF8
:100C2000112399F0002359F080E28D0F883010F0E5
:100C3000D11107C0802F0E94990C0E94D70C8D2FD4
:100C400041C0802F0E94A90CF8CF8D2F0E9446052D
:100C5000002309F43FC080E28D0F883010F0D111DD
:100C600004C0802F0E949F0C03C0802F0E94AF0CF5
:100C70000E94D70C2FC00C2F0F70C07FC03211F014
:100C80000295007FDD2381F0D13009F468C0112383
:100C900009F472C0FF2009F468C0F601858180FF65
:100CA000CECF8F70858361C080911A0382FD33C0DF
:100CB000112359F0002329F0802F0E94990C0E94E3
:100CC000D70C80E00E94B40405C080E00E94460575
:100CD0000111C7CFEB2DE850FF0B349720F40E9491
:100CE00077200E944404EE2089F00E948B0C80FD46
:100CF0000DC0F60112820E94850C0E94AD08C6014B
:100D00000E94DE070E94850C0E94BD08CDB7DEB7A9
:100D1000E9E00C94412A112389F0F11006C00E94E9
:100D2000B90C802B0E94C105D5CF21E0F212F7CF7C
:100D30000E94B90C802B0E94C00CCCCFF11006C0D1
:100D40000E94CD0C802F0E94C805C4CF31E0F3165D
:100D500009F2802F0E94C8050E94CD0CBBCF112341
:100D600031F085E08F1508F4B5CF802FDBCF94E00C
:100D70009F1508F4AFCFE6CFFF2021F3D93349F414
:100D8000FFEF27EE33E0F15020403040E1F700C0A4
:100D900000008D2F0E9446059DCF8C2F869586954D
:100DA000837069F0813009F095CF8D2F9C2F93705F
:100DB000111102C080E090E00E94D1208BCF8D2FD6
:100DC0009C2F9370111102C080E090E00E94AC2033
:100DD00081CF612F8D2F0E94AA047CCF8C2F83702E
:100DE000A1F5111177CF4D2F429546954770440FCD
:100DF000440F2D2F2F7030E0042E02C0220F331F1E
:100E00000A94E2F790E080E0D4FF09C08FE090E020
:100E100002C0880F991F4A95E2F780959095C69574
:100E2000C695C370822B932BC23049F058F4C13061
:100E300019F00E947D084ECF0E9474084BCF0E948B
:100E4000860848CF0E94710845CF8695112311F07E
:100E50008C2F8170882309F43DCF4D2F4295469504
:100E60004770440F440F2D2F2F7030E0042E02C026
:100E7000220F331F0A94E2F790E080E0D4FF09C00C
:100E80008FE090E002C0880F991F4A95E2F78095A5
:100E90009095C695C695C370822B932BC23049F0AE
:100EA00058F4C13019F00E94E80814CF0E94DF08FE
:100EB00011CF0E94F1080ECF0E9495080BCFCF7082
:100EC000112329F08C2F0E94AD088D2F2BCF8D2F51
:100ED0000E94C8058C2F0E94BD08FCCED23F51F164
:100EE00060F4D03FB9F0D13F81F0112309F449C03B
:100EF000F110A5CE8C2F8F7121C0D33F11F1D43FBB
:100F0000A1F780911A0382FD26C08C2F8F711123C7
:100F100011F314C0112349F084E08F1508F4DACEE0
:100F20008C2F8F710E94CF08D5CE95E09F1508F4C5
:100F3000D1CEF6CF8C2F8F711111CDCF0E94AD087D
:100F4000C9CE112329F08C2F8F710E94A108C2CE27
:100F50000E949C08BFCE112349F0CF718C2F0E94B4
:100F6000AD0863E08C2F0E941C0DB4CE81E00E947E
:100F70003A0DE1E0EF1508F0ADCE82E00E943A0DA7
:100F8000A9CEF110FBCE8C2F8F71A5CF0F931F939D
:100F9000CF93DF93EC01688179818A810E94B00947
:100FA0008C010E94FA080E947008B801CE010E94CC
:100FB000CF05DF91CF911F910F910895CF93DF93CC
:100FC000EC018B819C81892B29F08881998189236F
:100FD0008F3F51F4DF91CF910895CE010E94C60753
:100FE000CE010E94A103F6CFCE010E94CC03811155
:100FF000F4CF0E948F0C882369F38A81882351F3F0
:1010000080911A0382FFE6CF82E00E943A0DE2CF80
:1010100090E080E00E94AC2090E080E00E94D1202F
:101020000E94B60C0E94D70C0E94E1130E94C513C7
:1010300008950E947E0C0E94080808950E94A60C44
:101040000E941908089592959F70963091F058F477
:10105000925F9F70923058F4803F19F030F4883ED0
:1010600030F481E008959A5FF4CF843FD1F380E0BB
:101070000895883EB0F3813FD1F7F3CFFC0183811F
:101080009481892B29F08081918189238F3F11F4EC
:1010900080E00895808191810E94A5090E94230823
:1010A0000895A5E0B0E0E7E5F8E00C942C2A259639
:1010B000E2E00C94482AA6E0B0E0E1E6F8E00C9407
:1010C0002C2A2696E2E00C94482A08950E9465088E
:1010D00008950E946608909301028093000208958B
:1010E00008950E946908089520910002309101023C
:1010F000822B932B0E946908089520910002309161
:101100000102822393230E9469080895209100021E
:1011100030910102822793270E94690808950E9456
:10112000650808950E948F0808950E949208909380
:10113000FF018093FE01089590E080E00E949508F1
:10114000089521E030E0A90102C0440F551F8A959F
:10115000E2F7CA010E949508089521E030E002C03C
:10116000220F331F8A95E2F78091FE019091FF01D3
:10117000822B932B0E949508089521E030E002C055
:10118000220F331F8A95E2F7209530958091FE015A
:101190009091FF01822393230E949508089521E0F6
:1011A00030E002C0220F331F8A95E2F78091FE01E2
:1011B0009091FF01822793270E949508089520911E
:1011C000FE013091FF01822B932B0E949508089518
:1011D0002091FE013091FF01822393230E94950804
:1011E00008952091FE013091FF01822793270E94EC
:1011F000950808950895262F277091E001C0990F52
:101200002A95EAF723E0769567952A95E1F7660F28
:10121000771F660F771FFA01E60FF71F50E040E0D7
:10122000682F70E08191DF0111979B01042E02C0AD
:10123000369527950A94E2F72170219528272923CE
:1012400028272C934F5F5F4F4430510559F708957D
:10125000A82FA77023E0969587952A95E1F7880F28
:10126000991F880F991FFB01E80FF91F50E040E01C
:1012700080E0219130E00A2E02C0369527950A942D
:10128000E2F721703327042E01C0220F0A94EAF7F7
:10129000822B4F5F5F4F4430510559F70895262F39
:1012A000953070F48E3060F4682F70E08EE0989F77
:1012B000600D711D11244AED51E0822F0E94FB0840
:1012C0000895292F953068F48E3058F490E06AED37
:1012D00071E03EE0239F800D911D11240E9428099A
:1012E000089580E00895B0E0A0E0E9E7F9E00C940B
:1012F000252A7C010091FE011091FF0180910002DE
:1013000090910102082B192BCFE0D0E0CC24C3949C
:10131000D12CBC2EC6010C2E02C0880F991F0A9436
:10132000E2F780239123892B49F4219790F7B12C80
:101330008B2DCDB7DEB7E9E00C94412AB7018C2F95
:101340000E94EA0F019789F3F3CFCF93DF93EC016B
:101350000E947309BE010E94EA0FDF91CF910895A8
:101360001F93CF93DF93EB019091D901992339F02B
:10137000CB010E94A509DF91CF911F910895882389
:1013800069F0CB010E947309182F682FCE010E94CB
:101390004F09BE01812F0E94EA0FEDCFCB010E94C1
:1013A0006109182FF6CF1F93CF93DF93C0910202EC
:1013B00016E0809103028C1304C0DF91CF911F913E
:1013C0000895D0E01C9FF0011D9FF00D1124EC5FEB
:1013D000FD4F4081518162817381848195810E949A
:1013E0005B082196C770E5CF4091340250913502D9
:1013F00060913602709137028091380290913902E3
:101400000E945B0808951F93CF93DF938091390268
:10141000807F09F049C080913602882309F444C0D6
:1014200080910202C09103026091340270913502F2
:10143000A0913702B0913802D62FD72316E0C817F3
:1014400099F190E0109711F0DF3F19F40196877041
:10145000F6CF189F9001199F300D1124F901EC5F10
:10146000FD4F41814713F2CF40814613EFCF4281B8
:101470004111ECCF438154814A1B5B0B483C510521
:1014800028F7809139028F70806180933902F901C9
:10149000E75FFD4F80818F708061808384E392E0FD
:1014A0000E94DE070E94D309DF91CF911F9108951A
:1014B000A1E1B0E0EEE5FAE00C94242A8C0185E08D
:1014C000F801DE011D9601900D928A95E1F7F80171
:1014D000E28084E3C82E82E0D82E609137027091BA
:1014E00038026115710509F44EC1909134022091C2
:1014F0003502892F82238F3F09F445C140815181F4
:10150000A380B480F0903602F501E61BF70BFF20B4
:1015100009F4EAC080913902382F307FE83CF105A8
:1015200008F0A3C031116DC0FE2C251316C0941312
:1015300014C0E11012C08F708061809339020E9444
:10154000F409C6010E94DE0780913902F801858303
:101550008F2D6196EAE00C94402AA114B10429F081
:10156000842F85238F3F09F027C180E0F82FF17089
:10157000DF2E80FF3CC0809102022091030236E002
:10158000821315C04D875E878D859E850E94A509B3
:10159000292F22952F702230F0F0243018F59F70FB
:1015A000F1F0F8019581907FD1F4D12C1EC090E02C
:1015B000389FF001399FF00D1124EC5FFD4F6181E0
:1015C000651306C06081641303C06281E6120FC018
:1015D00001968770D5CF9F7011F0882331F3805E1C
:1015E000883018F3C8010E94DE07FD2CB1CFEE2031
:1015F00009F4AECF80913902816080933902F12CD9
:10160000A7CF251306C0941304C0F801EE2009F4F7
:1016100087C0C8010E943E08882319F1EE2009F115
:1016200080913902803270F020913402309135027D
:1016300038872F831986BB86AA868C87CE010796AA
:101640000E94DE0786E0F801A4E3B2E001900D926B
:101650008A95E1F70E94030A0E94F409FF24F3949B
:1016600077CFC8010E94DE07F9CF311113C07A2D60
:10167000B98AA88A6E2D89890E94510884E392E074
:101680000E94DE0786E0F60111928A95E9F70E9432
:10169000F409B5CF25130FC094130DC0E1100BC092
:1016A000F8018583C8010E94DE0786E0F6011192E9
:1016B0008A95E9F74DCFC8010E943E08882389F238
:1016C000EE2079F280913902803208F4BBCF20916C
:1016D0003402309135023A8329831B82BD82AC8269
:1016E0008E83CE010196ACCFE83CF10508F03EC0F8
:1016F000FE2CEE2009F4B5CF25132AC0941328C080
:101700008091390280FD1BC0982F907FC1F0F801B5
:101710008583903F31F0982F907F905F8F70892B59
:101720008583C8010E94DE0786E0F801A4E3B2E0E9
:1017300001900D928A95E1F70E94F40909CF86E0A5
:10174000F801A4E3B2E001900D928A95E1F700CF91
:10175000C8010E943E08811175CF809139028160D5
:1017600080933902C8010E94DE07F2CE7A2DB98A31
:10177000A88A6E2D89890E94510886E0F60111928F
:101780008A95E9F7D9CFEE2009F46BCFC8010E9402
:101790003E08F82E882309F464CF86E0F801A4E31C
:1017A000B2E001900D928A95E1F784E392E00E9405
:1017B000A4040E94030AC0CF81E08E25D7CEACE0FE
:1017C000B0E0E5EEFBE00C942B2A4F835887698745
:1017D0007A878B879C87CE0107960E94580A8823B8
:1017E00069F08A859B85892B39F04F815885842F34
:1017F00085238F3F09F06BC016E05FC086E0FE01D5
:101800003796DE01119601900D928A95E1F78A854F
:101810009B85892B89F388859F8189238F3F61F37D
:101820002091030230E0C901019687709927409109
:1018300002024817190671F40E941E081092030252
:101840001092020286E0E4E3F2E0DF011D928A9545
:10185000E9F7D2CF96E0929FD001939FB00D11246B
:10186000AC5FBD4FFE01319601900D929A95E1F764
:10187000809303020E94D309BFCF819FC00111242E
:101880008C5F9D4F0E94580A8823E9F0E091020284
:101890001E9FF0011124EC5FFD4F40815181628158
:1018A0007381848195810E945B088091020290E09F
:1018B000019687709927809302028091020290918D
:1018C00003028913DACF2C96E3E00C94472A69854A
:1018D0007A858B859C850E945B088ECF682F8091CE
:1018E0000401909105010E948A210895682F80913A
:1018F0000401909105010E949821089580910401AE
:10190000909105010E94A621089580915A02859523
:1019100085958595089580915A02877008959091D4
:101920005A02977081E009F480E0089580917D0269
:10193000089590917D02892B80937D020895809572
:1019400090917D02982390937D02089510927D02DC
:10195000089590917C02892B80937C020895809554
:1019600090917C02982390937C02089510927C02BF
:10197000089580915B02089508950E94BC0C08951B
:1019800090911A0392FF08C090915B02981721F082
:1019900080935B020E94BD0C089580915B028823B6
:1019A00029F010925B0280E00E94BD0C0895CF9355
:1019B000DF93E0910401F091050180917D02808325
:1019C000E0910401F0910501808190917C02892BC6
:1019D000808390915B02992381F0E0910401F09162
:1019E00005018081892B80838091040190910501FC
:1019F0000E94F62081110E94CD0CC0910401D0916B
:101A0000050140E250E06AE372E0CE010E94BC2A88
:101A1000892B59F080E2FE01AAE3B2E001900D9219
:101A20008A95E1F7CE010E948420DF91CF9108953D
:101A300008950E94180D089590911A0392FF11C005
:101A400098E0899F90011124622B60935A020E94B2
:101A5000AD0880915A028595859585950E94190D4E
:101A600008950E94AD08089510925A0280E00E94E5
:101A7000190D089590915A028095892380935A02F6
:101A8000282F277091F4282F082E000C330B921763
:101A9000130659F090911A0392FF07C0859585951A
:101AA00085950E94BD080E94340D089590911A03F7
:101AB00092FB222720F9281769F080FB92F9909376
:101AC0001A038091190390911A030E949E0D82E0DF
:101AD0000E943A0D089580911A0382FB882780F9AD
:101AE00091E089270E94560D089581E00E94560DCD
:101AF000089580E00E94560D08956FEF7FEF90E00B
:101B000080E00E94042B089590E080E00E94E02A8B
:101B100021E0873E9E4F09F020E0822F089582E069
:101B200090E00E94D22A089583E090E00E94D22A99
:101B3000089584E090E00E94E02A0895BC0184E0CA
:101B400090E00E94042B0895AB01BC018FE090E06F
:101B50000E94F82A0895AB01BC0183E190E00E9445
:101B6000F82A089560E070E0CB010E94AB0D089563
:101B700060E070E0CB010E94A40D0E94B20D0895B8
:101B800067EE7EEF90E080E00E94042B60E082E050
:101B900090E00E94E62A60E083E090E00E94E62A5E
:101BA000109201021092000260E074E184E090E083
:101BB0000E94042B60E086E090E00E94E62A6FEF2E
:101BC00087E090E00E94E62A40E050E0BA0188E019
:101BD00090E00E94F82A60E08DE090E00E94E62A02
:101BE00040E050E0BA0188E190E00E94F82A60E00D
:101BF00087E190E00E94E62A40E050E0BA018CE1E3
:101C000090E00E94F82A70E060E080E290E00E949C
:101C1000042B40E050E0BA0188E190E00E94F82AED
:101C20000E94B80D08950E94C00D0895682F8EE09F
:101C300090E00E94E62A08950E94742260938E022A
:101C400070938F02809390029093910260938A0226
:101C500070938B0280938C0290938D020895089567
:101C600008950E94300E089508950E94340E08953C
:101C700084ED90E10E946D200E942F0E0E94310E93
:101C8000089581E008950E94410E089508950895F1
:101C90000E94460E0E94470E08950E94F0100E9476
:101CA00043040E94821E08950E945F220E94CF1169
:101CB0000E944D0E0E94601C0E94EE1A0E94350E7A
:101CC0000895AAE0B0E0E7E6FEE00C94212A0E9425
:101CD000E51120E8822E22E0922E640110E0F60148
:101CE000E190F1906F01812F0E9416111F5F153056
:101CF00009F449C0E816F90691F38091920281FD3A
:101D00000E941F110E94430E782E10E0812F0E9426
:101D100016117C01F401A190B1904F018A159B0529
:101D200061F100E0CC24C394D12CAE24BF24C501C2
:101D30008C219D21892BC1F07720B1F00E831F8368
:101D400021E0C7018C219D21892B09F420E02887FF
:101D50000E9468228160782F9A8789874E815F81EF
:101D600068858A850E946F040F5FCC0CDD1C0E30E5
:101D7000F1F6F4013297F182E0821F5F153031F6FF
:101D80000E941C0E22C0E816F90609F0B6CF0E9488
:101D900068228C0180917E0290917F0208171907BA
:101DA000A1F08FEF89838A831B820E946822816061
:101DB000782F9D838C8349815A816B818D810E940C
:101DC0006F0410937F0200937E020E94211B0E94E9
:101DD000811E0E9403140E9456042A96EDE00C9482
:101DE0003D2ACF93DF930E94EF0FEC01811520E590
:101DF0009207D0F5811530E4930708F086C0803E45
:101E0000910518F58D3C910508F07DC0883A910543
:101E100070F4853A910508F06EC08130910501F1AA
:101E20000097F1F00497E0F4D0E0C0E019C0813CE5
:101E30009105D0F7C85AD0E0CC0FDD1FC15ADE4F54
:101E40000990D881C02DD4640BC08115904208F050
:101E5000A8C0C11581E0D80718F4C83ED10520F705
:101E6000CE01DF91CF910895803622E5920710F5DB
:101E7000803432E5930708F052C08032924508F072
:101E800047C0C11582E5D80708F47DC02C2F2695E0
:101E9000269540E2249F900111248C2F8370C1E08D
:101EA000D0E002C0CC0FDD1F8A95E2F7C22BD32B06
:101EB000DD68D6CF803A22E5920760F4803832E5BB
:101EC000930708F441C0CF71D0E0DC2FCC27C46F5A
:101ED000D06AC6CF803C42E5940708F449C0C03EB2
:101EE00082E5D80708F0A0CFDC2FCC27CC27DF7104
:101EF000C06FD06AB5CFC55AD0E0CF56DE4FC8818B
:101F0000D0E0D064ADCFD065ABCFDF70D06AA8CFC2
:101F1000CF71D0E0DC2FCC27C16FD06AA1CF282FA2
:101F200026952695277080E2289F900111248C2FFA
:101F30008370C1E0D0E002C0CC0FDD1F8A95E2F7CC
:101F4000C22BD32BDC688CCF282F269526952770A3
:101F500040E2249F900111248370C1E0D0E002C0D0
:101F6000CC0FDD1F8A95E2F7C22BD32BDA6878CF2E
:101F70008F710E949110C82FD0E0DC2FCC27CC2786
:101F8000DF71D0626DCF8C2F8F710E94911035E080
:101F9000D695C7953A95E1F7CF709C2FEC01D069A3
:101FA0005FCF8D2F8F710E94911090E0982F88271E
:101FB00088279F719C012C2BE901E3CF462F7530B8
:101FC00030F46E3020F4672F0E945B03089590E098
:101FD00080E008950E94DE0F0E94F10E089582387D
:101FE0009105B9F1B0F48133910509F47DC048F44D
:101FF0008932910509F46DC08A32910509F47BC0DC
:1020000008958533910509F45FC08933910509F17D
:102010000895833E9105D9F138F4803E910529F168
:10202000823E910579F10895863E9105D9F1873E6A
:10203000910509F43EC0843E910541F520911A03B3
:1020400021FF24C08091190384FD19C087EE90E020
:10205000089520911903237009F05AC020911A03A2
:1020600023FF14C089E290E008952091190320FD18
:1020700038C030911A0330FF09C024FF43C090E0FC
:1020800080E008952091190322FDF7CF0895209153
:10209000190322FD3AC030911A0330FD39C024FFE4
:1020A000F5CFEDCF2091190323FFF0CF24FDE7CF2B
:1020B000CDCF2091190323FD2EC030911A0331FF9B
:1020C000EECF84EE90E008952091190325FFDECF36
:1020D000C9CF2091190325FD21C020911A0323FFA8
:1020E000D5CF89E390E0D2CF2091190326FFCECF40
:1020F0008AE290E008952091190326FFC7CF81E37B
:1021000090E0089583EE90E0089582EE90E00895C7
:1021100080EE90E0089586EE90E0089585E390E0EB
:1021200008959091190392FF06C0282F2871283036
:10213000F9F4877F846093FF06C0282F2871283127
:10214000F1F4877E846120911A0320FF06C0382FA6
:1021500038713830D9F4877F816021FF06C0282F7D
:1021600028712831D1F4877E816194FD877E08959E
:10217000282F24712430F9F68B7F8860DCCF282F3C
:102180002471243101F78B7E8861DDCF382F3171C6
:10219000313019F78E7F8860E0CF282F21712131EF
:1021A00021F78E7E8861E1CF80E008950E947D0D49
:1021B00008950E94E5118FE39CE90197F1F700C0B3
:1021C00000000E94E51180E00E94161180FF04C00B
:1021D0000E94D6100E94B32208950E94D91008953B
:1021E0000E94840D811102C00E94130E0E948F0D67
:1021F000809392020E94990D90931A038093190381
:102200000E94ED100E94940D90E00E947108809150
:10221000FE019091FF010E949208089508950E9486
:102220000E11089508950E9412110895E82FF0E00C
:10223000EE0FFF1FEB5DFC4F8081918108950895A3
:1022400080EA8A95F1F7089500C008950E94201150
:102250000895F894E82FE295EF70F0E031A1282F6F
:102260002F7081E090E001C0880F2A95EAF7982F3F
:102270009095932391A392A1892B82A3789408959A
:102280000F931F93CF93DF93C2EAD1E089918F3FE1
:1022900011F00E94291181E0C73AD807B9F7C4E9C3
:1022A000D1E002EA11E089918F3F11F00E942911DB
:1022B0000C171D07C1F7DF91CF911F910F91089562
:1022C000AF92BF92DF92EF92FF920F931F93CF9343
:1022D000DF938C01D62EC62FD0E0CE018E559E4FB7
:1022E0007C01FC0120812F3F09F44CC0F894E22FBF
:1022F000E295EF70F0E031A12F7081E090E001C035
:10230000880F2A95EAF7932F982B91A392A1809595
:10231000892382A378940E942411E4E9F1E041E04A
:1023200050E0B12CA12C21912F3FB1F1A22FA29509
:10233000AF70B0E090968C9190E02F7002C09595B0
:1023400087952A95E2F780FD27C0CA01A82AB92AF5
:10235000440F551F81E0E23AF80729F7F701808121
:102360008F3F11F00E94291161E0A114B10409F41A
:1023700060E08D2D0E942611CC0FDD1FC00FD11FF4
:10238000B982A882DF91CF911F910F91FF90EF90BA
:10239000DF90BF90AF90089590E080E0D7CF0E948B
:1023A00040118AE0E5E2F3E0DF01982F1D929A9553
:1023B000E9F7EBE1F3E0DF011D928A95E9F785E0AB
:1023C0000E9420120E94AD030895AAE0B0E0EBEE57
:1023D000F1E10C94292A8E010F5F1F4F8AE0F8016A
:1023E00011928A95E9F7F12C6F2DC8010E946011B6
:1023F000F394F5E0FF12F8CF4AE050E0B8018BE12A
:1024000093E00E94BC2A21E0009709F420E0892B88
:1024100041F08AE0F801ABE1B3E001900D928A95BA
:10242000E1F745E065E273E08BE193E00E94211261
:10243000182F0E94B003812F2A96E5E00C94452ABC
:102440000895CF92DF92EF92FF921F93CF93DF9385
:102450006C017B01C42F222349F081E08093950217
:102460000E946822909394028093930210919502A7
:1024700011110AC010E0812FDF91CF911F91FF90C1
:10248000EF90DF90CF900895809193029091940205
:102490000E948022059770F3D0E0CC0FDD1FAE01C3
:1024A000B601C7010E94BC2A892B41F0AE01B601DA
:1024B000C7010E94C92A10929502DDCF10E0FBCF20
:1024C0000E944C240E94540E0E94592408950E9498
:1024D0005E240E94610E0E94782408950E940122C9
:1024E0000E9432240E94380E0E9460120E946712DD
:1024F0000E94480EFBCF80919C0280FF0DC060912E
:102500000B0170E0660F771F6038710570F561157B
:10251000710569F1862F089581FF07C060910B0155
:1025200084E0689FB0011124EFCF60910B0182FD20
:102530000AC080919B028823A9F020910A01609132
:102540000B01821710F088E0ECCF869FC0011124A8
:1025500033E0880F991F3A95E1F7622F70E00E94EF
:10256000AF29D2CF68E070E0D5CF8FE7089581E042
:10257000089580919C0280FF0CC06091070170E07B
:1025800075956795759567956115710549F1862F64
:10259000089581FF06C06091070170E07595679509
:1025A000F3CF6091070182FD0BC090919A029923AD
:1025B000A1F06091060180910701961738F0682F0D
:1025C00070E06038710500F38FE70895899FC001BE
:1025D000112470E00E94AF29F4CF61E070E0D7CF02
:1025E00081E008958D3C31F40E947B1281958093A7
:1025F000A00208958E3C19F40E947B12F8CF8F3C04
:1026000031F40E947B12819580939F020895803D52
:1026100019F40E947B12F8CF893D29F40E94B91267
:102620008093A10208958A3D21F40E94B9128195F8
:10263000F7CF8B3D31F40E94B91281958093A202AD
:1026400008958C3D19F40E94B912F8CF9FE2980FBB
:10265000983070F4815D990B21E030E001C0220FC9
:102660008A95EAF780919E02822B80939E020895BC
:102670008D3D31F480919C02816080939C0208958D
:102680008E3D21F480919C028260F7CF8F3DB9F797
:1026900080919C028460F1CF40919F028D3C59F45F
:1026A0008091A00287FF0DC01092A00241110BC0C3
:1026B00010929B0208C08E3C81F48091A0021816F3
:1026C0009CF3442381F08091A1029091A202892B76
:1026D00009F05AC010929A0208958F3C49F447FFBE
:1026E000F0CF10929F028091A0028111ECCFE0CF39
:1026F000803D19F41416ACF3E4CF9091A102893D0A
:1027000029F41916F4F61092A102DBCF8A3D19F4D0
:1027100097FFD7CFF8CF9091A2028B3D29F497FF76
:10272000D0CF1092A202CDCF8C3D19F41916CCF364
:10273000C8CF9FE2980F983090F4815D990B21E00B
:1027400030E0B90102C0660F771F8A95E2F7CB012E
:10275000809590919E02892380939E02B2CF8D3DF9
:1027600031F480919C028E7F80939C02AACF8E3D93
:1027700021F480919C028D7FF7CF8F3D09F0A1CF8E
:1027800080919C028B7FF0CF08950E9468229C016B
:1027900090919F028091A002982B21F03093990292
:1027A000209398029091A1028091A202982B21F08F
:1027B00030939702209396028DE992E00E949E202A
:1027C000089586E0EDE9F2E0DF011D928A95E9F7D0
:1027D00010929B0210929A0210929C020895FC01A2
:1027E000828181110EC0838181110BC0848181118E
:1027F00008C091E08581811101C090E0892F81702E
:10280000089581E0FCCFA6E0B0E0E9E0F4E10C94AB
:102810002B2A86E0EDE9F2E0DE01119601900D929F
:102820008A95E1F710929F021092A0021092A102E5
:102830001092A2028B819C81892B89F08091980251
:10284000909199020E948022AC0190919B02992361
:10285000C9F180910C018417150608F440C08D81E0
:102860009E81892B91F080919602909197020E940F
:102870008022AC0190919A02992309F471C0809151
:1028800008018417150608F479C0BE016F5F7F4FF9
:102890008DE992E00E94B821811105C08DE992E096
:1028A0000E94EF1381110E94C51386E0FE0131964C
:1028B000ADE9B2E001900D928A95E1F72696E3E04A
:1028C0000C94472A20910D018AE0289F9001112441
:1028D0002417350720F69F5F90939B0202C09F3F0D
:1028E000D1F71B81112359F00E947B129FEF111623
:1028F0000CF491E0899F802D112480939F021C810C
:10290000112359F00E947B129FEF11160CF491E0F5
:10291000899F802D11248093A00230919F02332340
:1029200009F49DCF2091A002222309F498CF45EB12
:102930003403C0011124992359F090939F0245EB71
:10294000240390011124332339F03093A00287CF60
:1029500081E080939F02F3CF81E08093A0027FCF3C
:10296000209109018AE0289F90011124241735073E
:1029700008F08BCF9F5F90939A0202C09F3FD1F7E0
:102980001D81112359F00E94B9129FEF11160CF40A
:1029900091E0899F802D11248093A1021E81112333
:1029A00059F00E94B9129FEF11160CF491E0899F23
:1029B000802D11248093A2023091A102332309F4C7
:1029C00064CF2091A202222309F45FCF45EB3403A8
:1029D000C0011124992359F09093A10245EB2403DF
:1029E00090011124332339F03093A2024ECF81E0BD
:1029F0008093A102F3CF81E08093A20246CFEF92B1
:102A0000FF920F931F93CF93DF93EB01E82FD11128
:102A10000EC0442321F0F0E0E659FC4FE4916E2F04
:102A20007E2F8E2FCDB7DEB7E6E00C94442A0D2F13
:102A300010E0282F30E0442329F026593C4FF901BB
:102A4000249130E0F6E0CF9FC0011124EFEFF0E0D9
:102A5000BF010E949B29AB018C2F90E0880F991F2A
:102A6000A5E5A49FB001A59F700D1124861B970BAF
:102A7000982F990F980FBF01601B710B629FD001B7
:102A8000639FB00D729FB00D11248B2F9D9FB001DD
:102A90001124672F7727EF01C61BD70BBE01629F5A
:102AA000E001639FD00D729FD00D11247F01E91AC0
:102AB000F108E09EB001E19E700DF09E700D1124B2
:102AC000672F7727E61BF70BE29F8001E39F100D2E
:102AD000F29F100D1124E12F722F4230510599F011
:102AE00048F44115510569F04130510581F0EB2F53
:102AF0008D2F07C04430510569F080F046305105F4
:102B0000B1F76E2F8FCFE22F7B2F812FFACFE22FDD
:102B10007D2FF7CFEB2F822F712FF3CF7B2F822FBB
:102B2000ED2FEFCF41E00E94FF14089508950E9419
:102B300092150895CF93DF93762FE901682F842FA4
:102B40000E949715798368838A83DF91CF910895D6
:102B500080912F03982F9E7F29F48170826080934B
:102B60002F0308958635E8F381708465F8CF88E0F7
:102B700090E00E94DA2A0895CF92DF92EF92FF92BE
:102B80006B017C010E94A815B701A60188E090E0C6
:102B90000E94F82AFF90EF90DF90CF900895EFE227
:102BA000F3E083E0808311828FEF8283838314823A
:102BB00060817181828193810E94BC15089580910A
:102BC0002F0380FF02C08695089580E008959091BC
:102BD0003303933018F49F5F90933303882351F0AD
:102BE00060912F03709130038091310390913203F3
:102BF0000E94BC15089581E00E94E7150895909108
:102C00003303992319F0915090933303882351F0A3
:102C100060912F03709130038091310390913203C2
:102C20000E94BC15089581E00E94FF15089570E090
:102C30000E94931E08956091120180912F0380FFDE
:102C40000BC08091110123E0829FC00111248C5C94
:102C50009C4F0E94171608958091130190911401C2
:102C600023E0829FF0011124EC5CFC4F891748F7A8
:102C70001182108212828F5F3396F8CF90912F03CA
:102C800090FF0EC0909113012091140133E0939FA7
:102C9000F0011124EC5CFC4F921718F00E941B16F7
:102CA00008958183608342839F5F3396F5CFA3E0CD
:102CB000B0E0EDE5F6E10C942C2A90912F0390FF03
:102CC0000AC09E012F5F3F4F0E949A154B81698178
:102CD0008A810E943E162396E2E00C94482ACF9304
:102CE000DF93EC01EC81F0E0EB59FD4F4491EFE212
:102CF000F3E0628181810E9457168C818F5F8C8303
:102D0000DF91CF910895CF93DF93EC01EFE2F3E0F1
:102D1000438162818C810E9457168C818F5F8C83E6
:102D2000DF91CF910895A3E0B0E0E9E9F6E10C94DA
:102D30002A2A8C018091A30281110AC09E012F5F73
:102D40003F4F4FEF6FEF0E949A158A818093A30245
:102D5000F8016481613069F08091A30240E066234C
:102D600061F040E0623011F44091A30280E060E045
:102D700004C06091A30240E080E00E943E16F8018A
:102D8000848190E0019663E070E00E94AF29848323
:102D90002396E4E00C94462AA3E0B0E0E2EDF6E1ED
:102DA0000C94252A082FD62EE42EC22E90912F03A4
:102DB00090FF29C0E92FE695AE2FB0E0A955BE4F90
:102DC0008C918093E9029E7F923009F59E012F5FDE
:102DD0003F4F802F0E949A154B8169818A810E9402
:102DE0003E1600933003D0923103E0923203CC20A0
:102DF00051F060912F0370913003809131039091D5
:102E000032030E94BC152396E9E00C94412A8230DB
:102E100019F4E0903203E5CF863019F400913003C5
:102E2000E0CF8930D9F38931E1F6E9516E2F617035
:102E3000B62EE695F0E0EB59FC4F1491F12C609121
:102E40001501F61618F00E941B16CBCFF19EC0019B
:102E5000112470E00E949B29802FB11014C0860FAE
:102E600020911301622F6F0D7727771F9B01220F8F
:102E7000331F260F371F2C5C3C4F4E2D6D2D0E94AB
:102E80009A15F394DCCF861BEBCFEFE2F3E0918150
:102E9000282F438162818AE0890F0E94CC16089511
:102EA00081E00E9445170895EFE2F3E09181282F19
:102EB0004381628186EF890F0E94CC16089581E0DC
:102EC0000E9454170895EFE2F3E0628121E1620F5E
:102ED00008F46FEF282F438181810E94CC1608955A
:102EE00081E00E9463170895EFE2F3E0628121E13F
:102EF000621B08F460E0282F438181810E94CC1678
:102F0000089581E00E9474170895EFE2F3E0438191
:102F100021E1420F08F44FEF282F628181810E9446
:102F2000CC16089581E00E9485170895EFE2F3E042
:102F3000438121E1421B08F440E0282F6281818116
:102F40000E94CC16089581E00E949617089520E013
:102F50000E94CC160895EF92FF921F93CF93DF93B8
:102F6000EC0110E0EE24EA94F12C609115011617A3
:102F700070F00E941B169A818C8190FF27C08F5F92
:102F80008C83DF91CF911F91FF90EF900895209156
:102F90001301422F410F5527551FCA019A01220FD5
:102FA000331F280F391F2C5C3C4F70E0C7010E9473
:102FB000AF29962F8C814091320360913103199F84
:102FC000800D11240E949A151F5FCFCF8150D8CF5A
:102FD000B0E0A0E0EEEEF7E10C94242AFC0182813F
:102FE0000FEF80FF01E010E04CE0A42E809115016E
:102FF000181798F00E941B168091A502013009F065
:103000004FC0811102C08091150181508093A502AB
:10301000CDB7DEB7EAE00C94402AC0911301C12E6F
:10302000D12CCC0DDD2DD11DCE01880F991FC80FDD
:10303000D91FCC5CDC4F198218821A8234E0E32E4F
:10304000F12CB12C8091A5028B0D8D301CF16A2DD5
:103050000E948D29892F082E000C990BC816D906BD
:1030600091F4809132038E9DA0018F9D500D11240B
:1030700055954795559547959E01609131038091EF
:1030800030030E949A15B00EF1E0EF1AF108D1F664
:103090001F5FACCF87FFDFCF90911501890FDBCF8A
:1030A00090E001966091150170E00E94AF29AECFCB
:1030B0000F931F93CF93DF9380911301909114018D
:1030C00023E0829FF0011124EC5CFC4F891740F152
:1030D000C0E0D3E060911501C61740F10E941B16B5
:1030E00020910F018091A402820F8093A4029091FD
:1030F0001001920F90931001191654F4082E000C31
:10310000990B409115014150550B841795071CF000
:10311000219520930F01DF91CF911F910F91089579
:103120001182108212828F5F3396D0CF0C2F10E065
:1031300070E0C8010E94AF2920911301820F482F2F
:1031400050E02091A402022E000C330B021713074B
:10315000BCF020911001022E000C330B2017310718
:103160007CF08D9F900111242C5C3C4F40913203E8
:1031700060913103809130030E949A15CF5FAACFEE
:10318000FA01EE0FFF1FE40FF51FEC5CFC4F1182FC
:1031900010821282F3CFB0E0A0E0E1EDF8E10C94F0
:1031A000222AEC014C81042F10E09801D8010E94E2
:1031B000F3299B01AC010E94092A4B015C01E0E26A
:1031C000F0E0E01BF10BA5E5B0E0AC019B010E9433
:1031D000092A6B017C019F01DF010E94EB299B0101
:1031E000AC010E94142A9B01AC01280D391D4A1D17
:1031F0005B1DC701B6010E94C329F22E822F90E009
:1032000039E23F1520F143E0249F900111243595C8
:103210002795122F109500E085E5E82EEF18809194
:103220001501081718F10E941B169C8181E0992353
:1032300019F0903219F48FEF80930E0180910E01F6
:10324000890F8C83CDB7DEB7ECE00C943E2A25E5E0
:1032500030E0B901681B790B9B01220F331F260F49
:10326000371F37FFD4CF2F5F3F4FD1CF8E2D01FDBA
:103270008F2D20911301622F600F7727771F9B01FD
:10328000220F331F260F371F2C5C3C4F412F6091BC
:1032900031030E949A150F5FC2CF0F931F93CF93F4
:1032A000DF93EC0110E000E09091150190171106FA
:1032B00009F06CF40E941B168C8190E001968170DD
:1032C00099278C83DF91CF911F910F9108952091C1
:1032D0001301A801420F511D9A01220F331F240F21
:1032E000351F2C5C3C4F4C81609131038091300341
:1032F00096959017110651F04CF0442349F04091F7
:1033000032030E949A150F5F1F4FCECF4423B9F3AB
:1033100040E0F7CFB0E0A0E0E0E9F9E10C941E2A2C
:10332000FC016280448081E08483E5E6F2E07490F1
:10333000E4EEF2E0E491C0913203C695C158D0E0CA
:10334000CC0FDD1FCD2FDD27812C75E0972EAA2411
:10335000AA94B12C55245A94E719EE2EF12C8091A1
:103360001501881638F00E941B16CDB7DEB7E0E1D4
:103370000C943A2AC82CD12C82E0861568F09C9CCB
:10338000F0019D9CF00D1124EA55FD4F8091300312
:103390008083809131038183411023C09C9CF00184
:1033A0009D9CF00D1124EA55FD4F1382128220914D
:1033B0001301C601820F911D9C01220F331F280F9C
:1033C000391F2C5C3C4F9C9CF0019D9CF00D1124FE
:1033D000EA55FD4F4281618180810E949A15839454
:1033E000BECF9C9C80019D9C100D11240A551D4F41
:1033F000F80183818823F1F081508383859DC0018A
:103400001124648170E00E949B29FB01FF27EB5986
:10341000FD4F8491E82FE719E59DC0011124B70104
:103420000E949B2980913203689FB0011124F8010A
:103430007283BDCF0E949F2AB5010E94AF298C17CD
:103440009D070CF0B4CFF2E0F61598F40E949F2A85
:10345000B5010E94AF29F80180830E949F2A209124
:1034600031032695622F70E00E94AF29280FF801E2
:1034700021839C9CF0019D9CF00D1124EA55FD4F89
:10348000128280913203893C58F088EC9C9CF001B8
:103490009D9CF00D1124EA55FD4F8483838387CFD3
:1034A0008431A0F784E1F2CFEFE2F3E080818E7FF8
:1034B000808360817181828193810E94BC1510920A
:1034C000EA020E941B16089560912F03669570E032
:1034D0004BE050E086E191E00E94AF2A892B19F47D
:1034E00081E08093EA020E9468229093E302809335
:1034F000E202089590912F0390FF2BC091708111EB
:1035000029C0926090932F03662351F060912F039E
:103510007091300380913103909132030E94BC1569
:1035200060912F03669570E04BE050E086E191E0FA
:103530000E94AF2A892BA9F01092EA0281E08093C1
:10354000E5024091320360913103809130030E9483
:10355000A71708958B3210F09465D4CF880F982B5D
:10356000D1CF0E94641AEACF682F90912F039695CD
:1035700081E0890F8B3208F081E00E947A1A089569
:1035800081E00E94B41A0895682F90912F039695B8
:103590008FEF890F09F48AE20E947A1A089581E078
:1035A0000E94C41A089561E00E947A1A0895EFE219
:1035B000F3E080818160808386950E94D31A08950C
:1035C00080912F0380FF03C00E94541A08950E9427
:1035D000D71A089560E00E947A1A08958091E8024F
:1035E00081112EC00E94840D811104C00E94130E0F
:1035F0000E94CF150E94B71560932F03709330037C
:1036000080933103909332036E7F61F40E94CF1553
:103610000E94B71560932F0370933003809331039A
:10362000909332030E94A8151092EA0280912F0312
:1036300080FF03C086950E94EA1A81E08093E80229
:1036400008950F931F93CF93DF938091EA0288230D
:10365000B9F18091E902E0912F03E695E81BE09330
:10366000E402823091F5F0E0EF59FD4FE491CE2F66
:10367000D0E00FE616E18091E502882361F0109218
:10368000E5020E9468229093E3028093E202109286
:10369000E7021092E6020E946822E091E202F091B5
:1036A000E3028E1B9F0B8F3F9F4750F4EC0FFD1FD3
:1036B000F093E302E093E20282EE92E0F8010995D2
:1036C000DF91CF911F910F910895863049F4F0E07A
:1036D000E25AFD4FE491CE2FD0E003E816E1CBCFC4
:1036E000893051F4E695F0E0E55AFD4FE491CE2F94
:1036F000D0E00BEA17E1BFCF8F3051F4E695F0E050
:10370000E85AFD4FE491CE2FD0E008EE17E1B3CF99
:10371000853149F4F0E0EB5AFD4FE491CE2FD0E033
:1037200008E518E1A8CFC8E2D0E00BEC18E1883139
:1037300009F4A1CF833239F4E3E5F2E0C591D491E5
:1037400003E916E198CFC4EFD1E00DE419E184322A
:1037500009F491CFC0EDD7E006E915E1853209F013
:103760008ACF8E2F63E00E948129E92FF0E0E05B91
:10377000FD4FE491CE2FD0E00AE819E17CCFFA01A9
:10378000811101C0FB0109950895CF93DF93C82FE4
:10379000D62F0E94DF158C1748F00E94DF158D1779
:1037A00028F40E94C01ADF91CF9108958C2F0E94B7
:1037B000D31AF9CF1F93CF93DF93EC01FB01128152
:1037C000111110C00E94960C8272FE01E052F8475F
:1037D000E531F10508F05EC0E95BF44D0C94E52994
:1037E0000E94E01A812FDF91CF911F9108954FEC35
:1037F0005AE160EC7AE10E94BF1BF4CF40EC5AE141
:103800006FEC7AE1F8CF4FE557E160E577E1F3CF70
:1038100040E557E16FE577E1EECF41E857E160E73A
:1038200077E1E9CF40E757E161E877E1E4CF43EAA8
:1038300057E162E977E1DFCF42E957E163EA77E1F7
:10384000DACF43E156E16BEF75E1D5CF4BEF55E1B0
:1038500063E176E1D0CF81E00E94D31AC3CF65E067
:1038600082E00E94C51BBECF68E086E0FACF6EE022
:1038700089E0F7CF64E18FE0F4CF67E185E1F1CF34
:1038800088E1EACF62E289E1ECCF83E2E5CF6AE248
:1038900085E2E7CF11E0A6CF86E090E00E94D22A31
:1038A0000895682F86E090E00E94E62A0895E8E5F2
:1038B000F3E080818470816380830E94511C0895AD
:1038C0000E94840D811104C00E94130E0E94571C97
:1038D0000E944C1C80935803883320F087708063CB
:1038E0008093580390915803892F817090FF04C0F2
:1038F000892F8695869586950E94C41D089580918E
:103900005803982F969596959695963040F49F5F1C
:10391000990F990F990F8770892B80935803809185
:1039200058038160809358030E94511C8091580372
:103930008695869586950E94C41D089580915803AA
:10394000982F987F79F0885080935803887F91E072
:1039500009F490E08091580390FB80F9809358031C
:103960000E94511C809158038695869586950E94E9
:10397000C41D08958091580380FD13C08160809319
:103980005803813019F489E08093580380915803DB
:103990000E94511C809158038695869586950E94B9
:1039A000C41D08958091580380FF08C08E7F8093C6
:1039B00058030E94511C80E00E94C41D089580910C
:1039C000580380FF03C00E94D21C08950E94BA1CB5
:1039D000089590915803892F8695869586958F5FD7
:1039E0008F7197708730E0F4880F880F880F892BCC
:1039F0008093580380915803887F91E009F490E008
:103A00008091580390FB80F9809358030E94511CC9
:103A1000809158038695869586950E94C41D0895C9
:103A200090935803E7CF873008F086E090915803D1
:103A30009770282F220F220F220F922B909358035A
:103A4000987F21E009F420E09091580320FB90F941
:103A5000909358030E94C41D08950E94131D8091E5
:103A600058030E94511C08959C01FB018281882308
:103A700049F12230F8E73F07F9F040F42115E8E773
:103A80003E0769F02130384779F00895243098E7EF
:103A9000390779F058F02530384789F0089586E0E5
:103AA0000E942D1D80E0089580E0FACF0E949E1CA8
:103AB000F9CF0E947F1CF6CF0E94DF1CF3CF0E943B
:103AC000E91CF0CF81E00895859A8D9A08958D982C
:103AD00008958D9A08951F920F920FB60F92112498
:103AE0002F933F934F935F936F937F938F939F9306
:103AF000AF93BF93EF93FF930E94691DFF91EF91E6
:103B0000BF91AF919F918F917F916F915F914F91F5
:103B10003F912F910F900FBE0F901F9018951F92FD
:103B20000F920FB60F9211242F933F934F935F93F1
:103B30006F937F938F939F93AF93BF93EF93FF9375
:103B400020918800309189008091860090918700B3
:103B50006AEF70E00E949B296B5F7F4F62177307CB
:103B600010F40E94671DFF91EF91BF91AF919F915B
:103B70008F917F916F915F914F913F912F910F9016
:103B80000FBE0F901F9018958F929F92AF92BF9289
:103B9000EF92FF920F931F93CF93DF93C82F87303D
:103BA00008F043C0811142C0809188009091890043
:103BB000892B51F080916F008D7F80936F008091F1
:103BC0006F008E7F80936F000E94691DA091860018
:103BD000B09187002C2F30E00E94F32926E030E0DE
:103BE00040E050E00E94C32989019A01809186003B
:103BF000909187006CE070E00E949B29601771072C
:103C000030F1C80169E070E00E949B29709389003F
:103C100060938800DF91CF911F910F91FF90EF90FB
:103C2000BF90AF909F908F900895C6E080918800DC
:103C300090918900892B51F680916F00826080936A
:103C40006F0080916F00816080936F00BFCF809183
:103C5000860090918700E0908600F0908700E091C8
:103C60008600F0918700C6E0D0E0BE010E949B294B
:103C7000060F171F211D311D4801590185E0880CD1
:103C8000991CAA1CBB1C8A95D1F7C701BE010E94D2
:103C90009B299F0150E040E0260F371F411D511D19
:103CA000C501B4010E94C32949015A01E09186006F
:103CB000F0918700CA01B9010E9471299B01AC01F2
:103CC000DF010E94092A9B01AC01C501B4010E94D9
:103CD00071292FE096958795779567952A95D1F765
:103CE000009186001091870030E020E0061717074A
:103CF0002807390708F08ACF609186007091870005
:103D000085CF08950E94641D82E08093800089E140
:103D1000809381008FEF9FEF9093870080938600C0
:103D20000E94601C0895869A41B34F7B51B3506442
:103D3000EFB7F8949B01220F331F260F371F280F70
:103D4000391F2817390741F4EFBF8FE594E0019739
:103D5000F1F700C000000895DC016D91CD0178E01D
:103D600051BB000000C067FF41BB660F000000C0F0
:103D700000C000C041BB00C07A9591F7E2CFCF935D
:103D8000DF93EC01FB018281882309F4D2C09E01FC
:103D900030572332310508F0B2C00E94990D90933C
:103DA0001A0380931903FE01E150F047E232F10556
:103DB00020F4E45AF44D0C94E529809119038160B4
:103DC0008093190393C080911A03886080931A032B
:103DD0008DC0809119038260F3CF809119038460B4
:103DE000EFCF809119038860EBCF80911A03816037
:103DF000EDCF80911A038260E9CF80911903806131
:103E0000DFCF809119038062DBCF8091190380643A
:103E1000D7CF0E941E08809119038068D1CF80916E
:103E200019038C60CDCF80911A038360CFCF80912E
:103E300019038E7FC5CF80911A03877FC7CF8091EA
:103E400019038D7FBDCF809119038B7FB9CF8091EE
:103E50001903877FB5CF80911A038E7FB7CF8091EA
:103E60001A038D7FB3CF809119038F7EA9CF8091E4
:103E700019038F7DA5CF809119038F7BA1CF0E945D
:103E80001E08809119038F779BCF80911903837F40
:103E900097CF80911A038C7F99CF8091190382FB71
:103EA000992790F921E0922790FB82F990FB83F902
:103EB00087CF80911A03982F909591708E7F892BD0
:103EC00090FB81F983CF90911903892F8F7B96FF07
:103ED000806476CF0E941E0890911903892F97FB6A
:103EE00087F980586DCF81E00E94160E80911903EA
:103EF00090911A030E949E0D0E941E0880E0DF919F
:103F0000CF91089580E0F0CF90911903892F8F7E93
:103F100094FF806155CF90911903892F8E7F90FF78
:103F200081604ECF90911A03892F877F93FF88601D
:103F30004DCF81E0E4CFCF93DF93EB0186319C47F7
:103F400011F50E94960C9A81992399F08A7A91E052
:103F500009F490E09093EB02811109C089E20E947C
:103F60006E0C0E94D70C80E0DF91CF91089585E31D
:103F7000F6CF8091EB02811104C089E20E94760C99
:103F8000F0CF85E3FBCF81E0EFCF0F931F93CF936B
:103F9000DF93C42FD22FFC0182818823C9F0409384
:103FA000EE020E9468229093ED028093EC0280E280
:103FB0008C0F883040F4C77081E001C0880FCA952B
:103FC000EAF70E94C105DF91CF911F910F910895EB
:103FD0001091EE02141332C08091EC029091ED0228
:103FE0000E948022883C910548F5C0E2CD0F1D1744
:103FF000B9F080E2810F883040F4177081E001C091
:10400000880F1A95EAF70E94C805C83048F481E085
:104010009D2F977001C0880F9A95EAF70E94C105FD
:10402000802F0E94B805C83070F6D77081E001C0BB
:10403000880FDA95EAF70E94C805C5CF80E28C0F99
:10404000883008F6C77081E001C0880FCA95EAF78A
:10405000F2CF0F93DB0188519C4787309105A0F583
:10406000FC01E258F44D0C94E52906E221EE41EE04
:104070006AE17CE7CD010E94C51F80E00F910895A1
:1040800007E225EE45EE6BE17CE7F4CF06E221EE98
:1040900040EE68E17CE7EECF07E225EE44EE69E111
:1040A0007CE7E8CF06E221EE42EE6CE17CE7E2CF6E
:1040B00007E225EE46EE6DE17CE7DCCF08E221E089
:1040C00045EE6EE17CE7D6CF12968C91882319F0ED
:1040D0001092EE02D3CF81E0D1CF9093D3018093A1
:1040E000D20108959093F4028093F3020895E09131
:1040F000F302F091F402309729F00190F081E02D65
:104100000995089580E00895E091F302F091F4029A
:10411000309799F020912901222359F02091190319
:1041200027FF07C0DC012C9111962C93119726E0F4
:104130002C930280F381E02D09950895E091F3021C
:10414000F091F402309739F022E0DC012C930480E6
:10415000F581E02D09950895A3E0B0E0E2EBF0E2EF
:104160000C942C2A2091F1023091F2022817390781
:10417000A1F09093F2028093F102E091F302F091AA
:10418000F402309751F023E029839B838A830680D1
:10419000F781E02DCE01019609952396E2E00C947B
:1041A000482AA3E0B0E0E7EDF0E20C942C2A20913D
:1041B000EF023091F00228173907A1F09093F00236
:1041C0008093EF02E091F302F091F402309751F006
:1041D00024E029839B838A830680F781E02DCE012A
:1041E000019609952396E2E00C94482AFC01329648
:1041F00080912901882321F0809119039EE187FF96
:1042000096E080E0915008F4089521912223D1F3A3
:104210008F5FF8CF662301F1209129012223F1F06D
:104220002091190327FF1AC0462F469546954695BB
:104230004E3190F4677021E030E002C0220F331F4E
:104240006A95E2F7840F911DFC01828190E028239A
:10425000392381E0232B69F480E00895FC01329634
:1042600008962191261721F0E817F907D1F7F4CF26
:1042700081E008959C01FC0132969FEF80E041911E
:10428000461751F09F3F19F4411101C0982F8F5FDD
:104290008630A9F79F3F09F40895290F311D97FD36
:1042A0003A95F90162830895FC01329608962191AE
:1042B000261303C0DF0111971C92E817F907B9F71D
:1042C0000895E62FE695E695E695EE3168F4E80F59
:1042D000F92FF11D677021E030E001C0220F6A95CF
:1042E000EAF78281822B82830895E62FE695E69590
:1042F000E695EE3170F4E80FF92FF11D677021E0BB
:1043000030E001C0220F6A95EAF7209582812823C8
:104310002283089520912901222339F02091190345
:1043200027FF03C00E94612108950E943A21089549
:1043300020912901222339F02091190327FF03C07E
:104340000E94752108950E9454210895FC0132961F
:1043500080912901882351F08091190387FF06C0BD
:104360008EE1DF011D928A95E9F7089586E0F9CF85
:1043700046E050E00E94BC2A21E0892B09F420E0AD
:10438000822F089508950E94C2210895811106C0C8
:1043900081E08093F5020E94C321089582E0F9CF65
:1043A00083E08093F5020E94C32108950E94C621F4
:1043B000089581E08093F5020E94C32108950E9430
:1043C000D9210895089508950E94E321089508953C
:1043D00008950E94E2210895CF930E94E7210E9450
:1043E000E5110E94E821C0E08C2F0E941611892B54
:1043F00031F4CF5FC530C1F780E0CF91089581E0FF
:10440000FCCF85B7806885BF85B7806885BF089574
:104410001F921FB61F9211248F939F93AF93BF9348
:104420008091F602811113C08091590390915A0333
:10443000A0915B03B0915C034196A11DB11D8093D7
:10444000590390935A03A0935B03B0935C03BF910D
:10445000AF919F918F911F901FBE1F9018958091D3
:104460006103843031F10E942E041092F60288E13B
:1044700090E020E40FB6F894A895809360000FBEFA
:104480002093600083B7817F846083BF83B781609E
:1044900083BF7894889583B78E7F83BF0FB6F894D7
:1044A000A895809160008861809360001092600000
:1044B0000FBE08950E941E080E943604089582E0EF
:1044C00084BD93E095BD9AEF97BD80936E000895EB
:1044D0002FB7F8948091590390915A03A0915B03F0
:1044E000B0915C032FBF08952FB7F89460915903E2
:1044F00070915A0380915B0390915C032FBF0895E4
:104500009C014FB7F8948091590390915A03A09160
:104510005B03B0915C034FBF821B930B08957894AB
:104520001F921FB61F9211248F939F93AF93BF9337
:104530008091590390915A03A0915B03B0915C0361
:104540000196A11DB11D8093590390935A03A09326
:104550005B03B0935C03BF91AF919F918F911F90CC
:104560001FBE1F90189581E08093E00080E2809349
:10457000D8001092C9008FE19EE40197F1F700C0C6
:10458000000087E090EBDC0180936A0390936B035B
:10459000A0936C03B0936D0388E19CE00FB6F89490
:1045A000A895809360000FBE90936000FFCF88E1D4
:1045B0009CE00FB6F894A895809360000FBE90938E
:1045C0006000FFCF8091170308959B01BA0190917D
:1045D00061039430E9F48F708093E9009FEF80913C
:1045E000E800915085FD06C085ED8A95F1F7000041
:1045F0009111F5CF8091E80085FF0AC050E040E0BE
:10460000C9010E94EA248091E8008E778093E80037
:10461000089543E050E0BC0182E00E94E522089545
:1046200046E050E0BC0182E00E94E5220895CF936D
:10463000DF93EC0180912901811111C048E050E025
:10464000BE0181E00E94E52280E2FE01A7EFB2E018
:1046500001900D928A95E1F7DF91CF9108958091B5
:10466000190387FF05C040E282E050E0BE01EACFB7
:1046700048E081E0FACF80916003811109C00E9477
:104680007A260E94D7268091E20084608093E2001F
:1046900008951092600308950E94D92108956091B1
:1046A0005D0381E0611101C080E00E94D021089586
:1046B0009091610381E0943009F080E060915D03A6
:1046C0000E94D621089542E061EC81E00E94F62527
:1046D00042E261EC82E00E94F6259091610381E064
:1046E000943009F080E060915D030E94C621089536
:1046F00080916303833009F461C030F48130D1F1DB
:10470000823009F49EC008958A3009F48AC08B3043
:1047100009F46FC0893009F050C080916203813282
:1047200009F04BC08091660390916703029708F0EF
:1047300044C08091E800877F8093E8008091E80082
:1047400082FF37C09091F3008091F200029731F41C
:104750008091F100813011F0863021F48091F100D8
:10476000809317038091E8008B778093E8000E9484
:104770002A2623C080916203813AF9F48091E800EF
:10478000877F8093E8008091660390916703892B6F
:1047900061F460E287EF92E070E00E943925809139
:1047A000E8008B778093E800089560E090E080E077
:1047B000F3CF809161038111C1CF0895809162038D
:1047C000813AD9F78091660390916703892BA9F705
:1047D0008091E800877F8093E8008091E80080FF67
:1047E000FCCF809129018093F1008091E8008E77C1
:1047F000BCCF80916203813201F780916603909172
:104800006703892BD1F68091E800877F8093E800C9
:104810000E942A2680916403809329010E941E0829
:10482000089580916203813241F68091E800877F8C
:104830008093E8000E942A268091650380931803E4
:10484000089580916203813A09F0B7CF8091E80022
:10485000877F8093E8008091E80080FFFCCF809103
:104860001803C1CF84B7877F84BF0FB6F894A8958B
:1048700080916000886180936000109260000FBE9C
:1048800080E890E00FB6F894809361009093610007
:104890000FBE0E94DF2108950E947A260E94D7262B
:1048A000E2EEF0E080818460808378940E94562953
:1048B000089581E291E00E94722008958091610341
:1048C000853031F480916103853019F00E945A22BD
:1048D00008950E942F2280915F03882399F30E94FC
:1048E000EC21882379F30E94D4240E941E08EACF89
:1048F00008950E947C240895292F33272330310501
:1049000019F168F42130310509F444C02230310531
:1049100009F445C090E080E030E020E025C021327D
:10492000310549F122323105A9F780E490E027E909
:1049300035E061157105C1F086EB90E021EE34E0C1
:104940006130710589F0E6CF99278130910581F0BA
:10495000009729F00297F1F6EAE6F4E002C0E0E9F8
:10496000F4E0849190E09F01FA013183208308955F
:10497000E2E8F4E0F6CF89E090E026EA34E0611561
:10498000710591F389E090E02FEB34E0613071051F
:1049900059F3C0CF82E190E02FEC34E0E5CF8BE318
:1049A00090E024E934E0E0CF80E189BD82E189BD77
:1049B00009B400FEFDCF8091D8008F7D8093D80090
:1049C0008091E00082608093E0008091E00081FDB2
:1049D000FCCF0895AF92BF92CF92DF92FF920F93D8
:1049E0001F93CF93DF936C01EB018A010E9449264C
:1049F000F82E811123C00115110539F0F8018081CD
:104A00009181C81BD90BC80ED91EB12CA12C20979F
:104A1000A9F08091E80085FD22C08091E8008E77A2
:104A20008093E80001151105A1F0F80180819181C2
:104A3000A80EB91EB182A08285E0F82E8F2DDF91DD
:104A4000CF911F910F91FF90DF90CF90BF90AF90CB
:104A500008950E9449268823D1F2F82EEFCFF6015F
:104A600081916F018093F1002197FFEFAF1ABF0A88
:104A7000CECFFC0180916803909169038617970758
:104A8000A0F06115710529F49091E8009E7790934C
:104A9000E80090E06115710551F4911108C0809112
:104AA000E80082FF34C080E00895BC01F2CF80911D
:104AB00061038823C1F18530C1F18091E80083FD55
:104AC00030C08091E80082FDEACF8091E80080FF4D
:104AD000E1CF8091F3002091F200382F611571052C
:104AE00019F02830310558F091E02830310509F0EF
:104AF00090E02091E8002E772093E800CBCF8191C1
:104B00008093F100615071092F5F3F4FE7CF809193
:104B10006103882341F0853041F08091E80083FFF4
:104B2000BECF81E0089582E0089583E00895FC01FE
:104B3000809168039091690386179707A0F061152B
:104B4000710529F48091E8008E778093E80090E069
:104B50006115710551F4911108C08091E80082FF40
:104B600035C080E00895BC01F2CF809161038823B5
:104B7000C9F18530C9F18091E80083FD31C0809191
:104B8000E80082FDEACF8091E80080FFE1CF8091CC
:104B9000F3002091F200382F6115710519F02830CB
:104BA000310558F091E02830310509F090E080910E
:104BB000E8008E778093E800CBCF84918093F1005A
:104BC0003196615071092F5F3F4FE6CF80916103AD
:104BD000882341F0853041F08091E80083FFBDCF0C
:104BE00081E0089582E0089583E00895982F97303A
:104BF00028F08F708093E90081E008959093E90098
:104C0000242F762F50E0981731F07091EC0020910E
:104C1000ED005091F00021FD02C09F5FE8CF309180
:104C2000EB003E7F3093EB003091ED003D7F309301
:104C3000ED003091EB0031603093EB007093EC00AD
:104C40002093ED005093F0002091EE0027FDE5CF7A
:104C500080E008958091620387FF13C08091E8008F
:104C600082FF06C08091E8008B778093E80004C043
:104C7000809161038111F2CF0895809161038823AF
:104C8000D9F38091E80080FFF8CF8091E8008E771B
:104C9000ECCF2091E4003091E50095E6A901209148
:104CA000EC00822F817020FF06C08091E80080FF19
:104CB00006C080E008952091E80022FD1AC080918E
:104CC0006103882389F0853089F08091EB0085FDB0
:104CD0000FC02091E4003091E50042175307F9F22C
:104CE0009150E1F684E0089582E0089583E008950C
:104CF00081E008950E94E9260E94F126E0EEF0E0AE
:104D0000808181608083E8EDF0E080818F7780830F
:104D100019BCA7EDB0E08C918E7F8C9380818F7E43
:104D200080831092600308950F931F93CF93DF93B6
:104D30000E94E9260E94F126C8EDD0E088818F7795
:104D4000888388818068888388818F7D888319BC67
:104D50001092610310925D0310925F0310925E0344
:104D600000EE10E0F80180818B7F80838881816074
:104D7000888342E060E080E00E94F625E1EEF0E00A
:104D800080818E7F8083E2EEF0E08081816080838D
:104D9000808188608083F80180818E7F8083888114
:104DA00080618883DF91CF911F910F910895E8ED85
:104DB000F0E080818F7E8083E7EDF0E0808181608C
:104DC000808384E082BF81E0809360030E94942608
:104DD0000895E8EDF0E080818E7F80831092E200FC
:104DE00008951092DA001092E10008951F920F9238
:104DF0000FB60F9211242F933F934F935F936F93AE
:104E00007F938F939F93AF93BF93EF93FF93809183
:104E1000E10082FF0BC08091E20082FF07C0809119
:104E2000E1008B7F8093E1000E9455298091DA0098
:104E300080FF19C08091D80080FF15C08091DA00F2
:104E40008E7F8093DA008091D90080FF96C080E148
:104E500089BD82E189BD09B400FEFDCF81E0809368
:104E600061030E943B238091E10080FF19C0809183
:104E7000E20080FF15C08091E2008E7F8093E20007
:104E80008091E20080618093E2008091D80080628E
:104E90008093D80019BC85E0809361030E944F2362
:104EA0008091E10084FF2BC08091E20084FF27C045
:104EB00080E189BD82E189BD89B5982F917080FF1D
:104EC000FBCF8091D8008F7D8093D8008091E10046
:104ED0008F7E8093E1008091E2008F7E8093E200DC
:104EE0008091E20081608093E20080915D038823DD
:104EF00009F449C084E0809361030E9458238091A3
:104F0000E10083FF29C08091E20083FF25C08091EA
:104F1000E100877F8093E10082E08093610310923B
:104F20005D038091E1008E7F8093E1008091E2003B
:104F30008E7F8093E2008091E20080618093E200A6
:104F400042E060E080E00E94F6258091F0008860F9
:104F50008093F0000E944C23FF91EF91BF91AF919D
:104F60009F918F917F916F915F914F913F912F9181
:104F70000F900FBE0F901F90189519BC10926103EF
:104F80000E94492370CF8091E30087FD93E09093C6
:104F90006103B3CF1F920F920FB60F9211242F937C
:104FA0003F934F935F936F937F938F939F93AF93B1
:104FB000BF93CF93DF93EF93FF93D091E900DF701E
:104FC0008091EC00C82FC17080FDC0E81092E9000C
:104FD0008091F000877F8093F00078940E940E28E3
:104FE0001092E9008091F00088608093F000CD2B52
:104FF000CF70C093E900FF91EF91DF91CF91BF9106
:10500000AF919F918F917F916F915F914F913F9160
:105010002F910F900FBE0F901F901895AAE2B0E04D
:10502000E4E1F8E20C942B2A82E693E02091F1006F
:10503000FC012193CF01F3E08A369F07B9F70E9464
:1050400078238091E80083FF1EC1809162039091D4
:1050500063039A3008F017C1E92FF0E0EB57F44DE5
:105060000C94E529803899F0823809F00CC18091C0
:1050700066038F70873008F006C18093E900809145
:10508000EB0085FB882780F91092E90006C080912B
:105090005E0390915F03911182609091E800977F89
:1050A0009093E8008093F1001092F1008091E80065
:1050B0008E77E5C0882309F4D3C0823009F0E3C0BD
:1050C000809164038111D6C0809166038F702FEFA9
:1050D000280F263008F0D7C08093E9002091EB001C
:1050E00020FFC8C0933031F48091EB008062809340
:1050F000EB00C0C09091EB0090619093EB0021E039
:1051000030E001C0220F8A95EAF72093EA0010925E
:10511000EA008091EB008860EACF8111B4C0109161
:1051200064031F778091E3008078812B8093E300F4
:105130008091E800877F8093E8000E942A26809172
:10514000E80080FFFCCF8091E30080688093E3005B
:1051500082E0111183E08093610395C08058823012
:1051600008F091C080916403909165038C3D23E029
:105170009207A1F583E08A838AE289834FB7F89486
:10518000DE01139620E03EE051E2E32FF0E0509381
:105190005700E49120FF03C0E295EF703F5FEF708E
:1051A0008E2F90E0EA30C0F0C7968D939D932F5FCD
:1051B000243159F74FBF8091E800877F8093E80042
:1051C0006AE270E0CE0101960E9439258091E800E4
:1051D0008B778093E80057C0C096E7CF6091660355
:1051E00070916703AE014F5F5F4F0E947924BC014D
:1051F000892B09F448C09091E800977F9093E800CC
:1052000089819A810E949725E1CF8038E1F58091CC
:10521000E800877F8093E80080915D038093F10030
:1052200045CF811130C090916403923060F5809138
:10523000E800877F8093E80090935D030E942A2610
:1052400080915D03882311F084E005C08091E30024
:1052500087FDFACF81E0809361030E94632313C02E
:1052600080916403813079F481E0933009F080E02B
:1052700080935F031092E9008091E800877F80931C
:10528000E8000E942A268091E80083FF0AC08091EE
:10529000E800877F8093E8008091EB008062809334
:1052A000EB00AA96E3E00C94472A0895CF938091EF
:1052B00061038823A1F0C091E900CF709091EC00C8
:1052C000892F817090FD80E8C82B1092E9008091B1
:1052D000E80083FD0E940E28CF70C093E900CF91B3
:1052E0000895DB018F939F930E94092ABF91AF918C
:1052F000A29F800D911DA39F900DB29F900D112430
:105300000895991B79E004C0991F961708F0961B21
:10531000881F7A95C9F78095089587FB082E062681
:1053200087FD819567FD61950E9481290EF4919515
:1053300007FC81950895AA1BBB1B51E107C0AA1F5A
:10534000BB1FA617B70710F0A61BB70B881F991F26
:105350005A95A9F780959095BC01CD01089597FBCA
:10536000072E16F4009407D077FD09D00E949B29E0
:1053700007FC05D03EF4909581959F4F0895709558
:1053800061957F4F0895A1E21A2EAA1BBB1BFD0158
:105390000DC0AA1FBB1FEE1FFF1FA217B307E40714
:1053A000F50720F0A21BB30BE40BF50B661F771F6C
:1053B000881F991F1A9469F760957095809590954C
:1053C0009B01AC01BD01CF010895EE0FFF1F0590B9
:1053D000F491E02D09940E94F329332312F48A1BDF
:1053E0009B0B0C94042AA29FB001B39FC001A39F02
:1053F000700D811D1124911DB29F700D811D11240E
:10540000911D08950E94F329B7FF0895821B930B05
:1054100008950E94F329A59F900DB49F900DA49F1D
:10542000800D911D11240895B7FF0C94092A0E9444
:10543000092A821B930B08952F923F924F925F92FD
:105440006F927F928F929F92AF92BF92CF92DF9294
:10545000EF92FF920F931F93CF93DF93CDB7DEB7F9
:10546000CA1BDB0B0FB6F894DEBF0FBECDBF09948D
:105470002A88398848885F846E847D848C849B84E4
:10548000AA84B984C884DF80EE80FD800C811B81F2
:10549000AA81B981CE0FD11D0FB6F894DEBF0FBE21
:1054A000CDBFED0108958F929F92AF92BF92CF92A0
:1054B000DF92EF92FF92CF93DF93EC0168817981C5
:1054C0008A819B81611571058105910521F464E252
:1054D00079ED8BE597E02DE133EF41E050E00E945C
:1054E0001A2B49015A019B01AC01A7EAB1E40E94C1
:1054F000092A6B017C01ACEEB4EFA50194010E9476
:10550000172ADC01CB018C0D9D1DAE1DBF1DB7FF01
:1055100003C00197A109B04888839983AA83BB83FC
:105520009F77DF91CF91FF90EF90DF90CF90BF906A
:10553000AF909F908F9008950E94532A089580E025
:1055400091E00E94532A0895B0E0A0E0809300010A
:1055500090930101A0930201B09303010895FC010F
:105560004150504030F001900616D1F73197CF01ED
:105570000895882799270895FB01DC0104C08D91C7
:105580000190801921F441505040C8F7881B990BB5
:105590000895FB01DC0102C001900D924150504082
:1055A000D8F70895F999FECF92BD81BDF89A992751
:1055B00080B50895A6E1B0E044E050E00C940C2BD7
:1055C000A8E1B0E042E050E00C940C2B262FF999B2
:1055D000FECF92BD81BDF89A019700B4021639F052
:1055E0001FBA20BD0FB6F894FA9AF99A0FBE089523
:1055F0000396272F0E94E72A0E94E62A252F0E9461
:10560000E72A242F0C94E72A0196272F0E94E72AE5
:105610000C94E62ADC01CB01FC01F999FECF06C00F
:10562000F2BDE1BDF89A319600B40D924150504060
:10563000B8F70895052E97FB1EF400940E94312BB5
:1056400057FD07D00E94C32907FC03D04EF40C94E9
:10565000312B50954095309521953F4F4F4F5F4FDF
:10566000089590958095709561957F4F8F4F9F4FCE
:105670000895F894FFCF0A060A063B063B06CD06BE
:10568000E9066A066A06EE065F076E076E07F01BFC
:10569000F71BFE1B031C081C0D1C121C171C1C1CDA
:1056A000211C261C2B1C2F1C341C371C3A1C3D1C97
:1056B000401C421C451C471C171F8B1F1F1FE91E47
:1056C000ED1E231FF11E271F331FFD1E841F011F08
:1056D000371F051F3B1F631F091F3F1F6A1F0F1F37
:1056E000451F4D1FF51E2B1FF91E2F1F131F491F8E
:1056F000591F731F821FE31E1B1F921F46204C2041
:1057000035204020522058205E2032285A28432934
:0E5710005A2843298D28AE284329052911293E
:10571E00010000005C02280850011E0A140101015C
:10572E0002000C000C0C01191A1B1C1D1E1F20213F
:10573E0022E22217231023092301E200E900EA00E6
:10574E00B500B600B700CD008301CC008A019201EE
:10575E0094012102230224022502260227022A0294
:10576E00B300B4006F0070009F01CB01818283E211
:10577E0000E900EA00B500B600B700CD008301CC09
:10578E00008A01920194012102230224022502269D
:10579E000227022A02B300B4006F0070009F01CBF3
:1057AE0001818283F0F1C6676636943137353497BE
:1057BE00963390919293950001020202020606061C
:1057CE000909090909090F0F0F0F0F0F15151518E4
:1057DE0019191919191919191919232425252525E6
:0257EE0025256F
:00000001FF
